{
  "contractName": "PayContract",
  "abi": [
    {
      "constant": true,
      "inputs": [],
      "name": "customer",
      "outputs": [
        {
          "name": "",
          "type": "address"
        }
      ],
      "payable": false,
      "stateMutability": "view",
      "type": "function"
    },
    {
      "constant": true,
      "inputs": [],
      "name": "worker",
      "outputs": [
        {
          "name": "",
          "type": "address"
        }
      ],
      "payable": false,
      "stateMutability": "view",
      "type": "function"
    },
    {
      "constant": true,
      "inputs": [],
      "name": "amountToPay",
      "outputs": [
        {
          "name": "",
          "type": "uint256"
        }
      ],
      "payable": false,
      "stateMutability": "view",
      "type": "function"
    },
    {
      "constant": true,
      "inputs": [],
      "name": "expert",
      "outputs": [
        {
          "name": "",
          "type": "address"
        }
      ],
      "payable": false,
      "stateMutability": "view",
      "type": "function"
    },
    {
      "inputs": [
        {
          "name": "_customer",
          "type": "address"
        },
        {
          "name": "_expert",
          "type": "address"
        }
      ],
      "payable": false,
      "stateMutability": "nonpayable",
      "type": "constructor"
    },
    {
      "payable": true,
      "stateMutability": "payable",
      "type": "fallback"
    },
    {
      "constant": false,
      "inputs": [],
      "name": "payAmountToExpert",
      "outputs": [],
      "payable": false,
      "stateMutability": "nonpayable",
      "type": "function"
    }
  ],
  "bytecode": "0x608060405234801561001057600080fd5b506040516040806104bb8339810180604052604081101561003057600080fd5b810190808051906020019092919080519060200190929190505050336000806101000a81548173ffffffffffffffffffffffffffffffffffffffff021916908373ffffffffffffffffffffffffffffffffffffffff16021790555081600160006101000a81548173ffffffffffffffffffffffffffffffffffffffff021916908373ffffffffffffffffffffffffffffffffffffffff16021790555080600260006101000a81548173ffffffffffffffffffffffffffffffffffffffff021916908373ffffffffffffffffffffffffffffffffffffffff16021790555060006003819055505050610395806101266000396000f3fe60806040526004361061006d576000357c0100000000000000000000000000000000000000000000000000000000900463ffffffff16806317665bbf146100db5780632804b2c0146100f25780634d547ada146101495780637ba13680146101a057806393bde246146101cb575b3373ffffffffffffffffffffffffffffffffffffffff16600160009054906101000a900473ffffffffffffffffffffffffffffffffffffffff1673ffffffffffffffffffffffffffffffffffffffff161415156100c957600080fd5b34600360008282540192505081905550005b3480156100e757600080fd5b506100f0610222565b005b3480156100fe57600080fd5b506101076102f2565b604051808273ffffffffffffffffffffffffffffffffffffffff1673ffffffffffffffffffffffffffffffffffffffff16815260200191505060405180910390f35b34801561015557600080fd5b5061015e610318565b604051808273ffffffffffffffffffffffffffffffffffffffff1673ffffffffffffffffffffffffffffffffffffffff16815260200191505060405180910390f35b3480156101ac57600080fd5b506101b561033d565b6040518082815260200191505060405180910390f35b3480156101d757600080fd5b506101e0610343565b604051808273ffffffffffffffffffffffffffffffffffffffff1673ffffffffffffffffffffffffffffffffffffffff16815260200191505060405180910390f35b3373ffffffffffffffffffffffffffffffffffffffff166000809054906101000a900473ffffffffffffffffffffffffffffffffffffffff1673ffffffffffffffffffffffffffffffffffffffff1614151561027d57600080fd5b600260009054906101000a900473ffffffffffffffffffffffffffffffffffffffff1673ffffffffffffffffffffffffffffffffffffffff166108fc6003549081150290604051600060405180830381858888f193505050501580156102e7573d6000803e3d6000fd5b506000600381905550565b600160009054906101000a900473ffffffffffffffffffffffffffffffffffffffff1681565b6000809054906101000a900473ffffffffffffffffffffffffffffffffffffffff1681565b60035481565b600260009054906101000a900473ffffffffffffffffffffffffffffffffffffffff168156fea165627a7a723058200a9f440eda988f0276a95a1a52b35c185b25400beacf6d5af16d4498752643c00029",
  "source": "pragma solidity 0.5.0;\n\ncontract PayContract {\n  address payable public worker;\n  address payable public customer;\n  address payable public expert;\n\n  uint256 public amountToPay;\n\n  constructor (address payable _customer, address payable _expert) public {\n    worker = msg.sender;\n\n    customer = _customer;\n    expert = _expert;\n\n    amountToPay = 0;\n  }\n\n  function () external payable {\n    require(customer == msg.sender);\n    amountToPay += msg.value;\n  }\n\n  function payAmountToExpert() public {\n    require(worker == msg.sender);\n\n    // transfer pay amount to expert\n    expert.transfer(amountToPay);\n\n    amountToPay = 0;\n  }\n}\n",
  "sourcePath": "/Users/mordor/IdeaProjects/ethereum-example/master-ethereum-example/contracts/PayContract.sol",
  "compiler": {
    "name": "solc",
    "version": "0.5.0+commit.1d4f565a.Emscripten.clang"
  },
  "schemaVersion": "3.0.9",
  "updatedAt": "2019-05-20T10:45:39.175Z",
  "devdoc": {
    "methods": {}
  },
  "userdoc": {
    "methods": {}
  }
}